:03000000020CD41B
:0C0CD400787FE4F6D8FD758152020D1BFC
:1012BF00C2AF1215D31216A01216521214077B01C9
:1012CF007A0079AB9000047404F0E4FF1211277BCD
:1012DF00017A0079A39000047408F07F0712112798
:0E12EF007B017A0079AB7D0412138DD2AF2201
:101235007F327E001214F41212BF1216A9121688FC
:10124500121512E4FBFDFF120C4512056DEFB40CEF
:10125500139000A0E0D394004005E014F08005E46D
:101265009000A0F0EFB40D0E9000A0E004F0D39430
:0B1275000340037403F012002680CF3A
:0D167B0049443A20002D2D2D2D2D2D2D2D13
:100F6F004100A0004400B2000000004400ABFFFFAE
:100F7F00FFFF4800A330303030303030304100AF09
:060F8F00004200B000006A
:0E164400E49000D8F09000DAF09000D9F02287
:0D166E001215127FD07E071214F4021688A8
:0316A600021530FA
:1008C1007B017A0079A17F26120DECEF60117B018B
:1008D1007A0079A17F26120DECEF60037F00227B65
:1008E100017A0079B21209B1EF600B9000B0E4F027
:1008F100A304F07F00229000AF7401F0FB7A00792D
:10090100A17D0212138D7B017A0079B27D0412134D
:100911008DE4FF74B22FF582E43400F583E0C45412
:100921000FFED394094005EE2437801074B22FF5E1
:1009310082E43400F583E0C4540F2430FEEF25E057
:10094100240CF582E43400F583EEF074B22FF582C5
:10095100E43400F583E0540FFED394094005EE24FE
:1009610037800F74B22FF582E43400F583E0540F21
:100971002430FEEF25E0240DF582E43400F583EE0A
:10098100F00FEF6404708C7BFF7A16797B9000196D
:100991007404F0E4FD7F031212807B017A00790C6C
:0F09A1009000197408F07D027F031212807F010D
:0109B0002224
:100026009000027410F078037C007D017BFF7A1645
:1000360079807E007F081207EC90000BE0FF9000AD
:10004600A0E06F60127F021216237F031216239020
:1000560000A0E090000BF09000A0E014606814701F
:100066000302020914700302025724036003020309
:100076003C7B01E4FD7F01120C451208C1EF7003C1
:1000860002033C9000ABE0FF9000B2E06F702B9053
:1000960000ACE0FF9000B3E06F701F9000ADE0FF92
:1000A6009000B4E0B507139000AEE0FF9000B5E015
:1000B600B507071216AC7B0580027B06E4FD7F02BE
:1000C600120C450201E97B02E4FD7F01120C457B1F
:1000D600017A0079039000197408F0E4FD7F031299
:1000E6001280E4900001F012056D900002EFF0BF5F
:1000F6000C03020283900002E0FFB40D079000A0FB
:10010600E004F022EFC394004030EFD39409502A64
:10011600EF2430FF900001E0FE04F074032EF58218
:10012600E43400F583EFF07B017A0079039000193F
:100136007408F0E4FD7F03121280900002E0B40B15
:1001460025900001E014F02403F582E43400F583E1
:10015600742DF07B017A0079039000197408F0E49D
:10016600FD7F03121280900001E064086003020024
:10017600ED9000A3E0FF900003E06F706C9000A488
:10018600E0FF900004E06F70609000A5E0FF900033
:1001960005E06F70549000A6E0FF900006E06F70D7
:1001A600489000A7E0FF900007E06F703C9000A821
:1001B600E0FF900008E06F70309000A9E0FF90002B
:1001C60009E0B507249000AAE0FF90000AE0B50711
:1001D600189000AF7401F01216AC7B05E4FD7F02A7
:1001E600120C451216A902033C1216A912151290FA
:1001F60000B0E4F0A304F07B06E4FD7F02120C4598
:1002060002033C7B03E4FD7F01120C451208C1EF9B
:10021600700302033CE4900000F0900000E0FF242D
:10022600B2F582E43400F583E0FE74AB2FF582E488
:100236003400F583EEF0900000E004F0E0B404DA58
:100246007B017A0079B29000107404F0E4FF020397
:10025600397B04E4FD7F01120C457B017A007903AA
:100266009000197408F0E4FD7F03121280E49000F8
:1002760001F012056D900002EFF0BF0C079000A090
:10028600E014F022900002E0FFC394004030EFD368
:100296009409502AEF2430FF900001E0FE04F07428
:1002A600032EF582E43400F583EFF07B017A0079C2
:1002B600039000197408F0E4FD7F03121280900089
:1002C60002E0B40B25900001E014F02403F582E46B
:1002D6003400F583742DF07B017A007903900019C0
:1002E6007408F0E4FD7F03121280900001E06408B8
:1002F6007080A3E0640F6003020278900000F09023
:100306000000E0FF2403F582E43400F583E0FE7488
:10031600A32FF582E43400F583EEF0900000E004AC
:10032600F0E0B408DA7B017A0079A3900010740833
:10033600F07F07120FE59000AFE06005E4F01216BB
:100346006E9000B0E07002A3E0600AE49000B0F0A6
:05035600A3F01216A641
:01035B00227F
:10000E00E4FDFCC3ED9FEC9E500A0000000DBD0008
:04001E00010C80EF62
:0100220022BB
:1015A500E4FFFEEF25E0FFC2A630A4034401FFD20D
:0615B500A60EEEB408EDE5
:0115BB00220D
:10149600E4FEEF30E704D2A58002C2A50000C2A692
:0F14A6000000D2A60000EF25E0FF0EEEB408E331
:0114B5002214
:1015E900E4FEC2A7EF25E0547E4480FF1214961250
:0415F90015A5D2A7BB
:0115FD0022CB
:10132F0012134B7D1E7F2D12134BE4FD7F2C1213D6
:0C133F004B7D8D7F2A12134B7D3E7F2BCF
:10134B00C2A7EF25E0547EFF121496AF0512149638
:02135B00D2A717
:01135D00226D
:0515BC00F07D087F082E
:0215C100AC0775
:1015C300E4FE1215E9AE07AF04EDF45EFD02134B22
:0E14B6001215C1E4FD7F0112134B7D807F0AE9
:0214C400AC0773
:0F14C600E4FE1215E9AE07AF04ED4EFD02134B25
:060E74007B017A00798E7B
:0E0E7A009000CBEBF0A3EAF0A3E9F0A3EDF0BB
:100E88007D047F051214B6E4FC9000CEE0FFECC3AD
:100E98009F501C9000CBE0FBA3E0FAA3E0F98C8202
:100EA80075830012082BFD7F0912134B0C80DA7D25
:100EB800037F0112134B7CFF7F051215E91CEC60C0
:100EC80004EF30E2F37F221215E99000CFE0FBA394
:100ED800E0FAA3E0F9EF1208587F211215E9900013
:100EE800CFE0FBA3E0FAA3E0F9900001EF02086A63
:10035C00900031F0A37401F0A37400F0A3748EF03C
:10036C00A37401F0A37400F0A3748CF07A00798E5E
:04037C007B017F0C76
:1003800090002EEBF0A3EAF0A3E9F090002DEFF03F
:1003900090003874FEF0E4A3F0A3F0EF24F46010B2
:1003A00024FE70169000397412F0A37410F0800AC5
:1003B0009000397477F0A37430F0900039E04480F5
:1003C000FD7F0212134B7D807F041214B6E490006F
:1003D0003CF0A3F0900031E0FF90003CE0FCA3E093
:1003E000FDC39FEC9400502890002EE0FBA3E0FAA0
:1003F000A3E0F98D828C8312082BFD7F0912134B29
:1004000090003DE004F070CC90003CE004F080C42B
:1004100090002DE0FD7F0112134BE0B40C077D80AE
:100420007F0D1214C490003C7407F0A374D0F07FC9
:10043000041215E990003BEFF090003DE024FFF03E
:1004400090003CE034FFF0E07002A3E06011900007
:100450003BE0FF20E00990003AE0FEEF5E60D07DD7
:10046000807F0D1215C190003CE07002A3E0700384
:100470000205597F061215E9EF541B60030205536C
:10048000900038F0A3E0FF90003BE05F30E0069082
:10049000003874FFF090002DE0640C6003020559F1
:1004A0007F0A1215E990003BEFF07F0C1215E9EF7F
:1004B0005407FD6026E024FFFFE434FFFEEF7803DD
:1004C000C333CE33CED8F97C002DFFEC3EF990003B
:1004D00035E0FBA3E0FAA3E0C9801690003BE0758D
:1004E000F008A4FF900035E0FBA3E0FAA3E0F9E5F3
:1004F000F08FF01208A290003BE0700204F0900030
:100500003BE0D3941240037412F0E490003CF0A35B
:10051000F090003BE0FFC390003DE09F90003CE086
:10052000940050357F091215E9900032E0FBA3E0FA
:10053000FAA3E0F990003CE0FCA3E0F5828C83EFA5
:1005400012086A90003DE004F070C690003CE004A0
:10055000F080BE90003874FEF07D807F0C1214C4D1
:0C056000E4FD7F0112134B900038E0FF17
:01056C00226C
:0D0DEC00900014EFF0A3EBF0A3EAF0A3E9F0
:100DF9001215BC7D077F0D12134B7D037F1412144E
:100E0900C4900014E090001AF09000317401F0A32E
:100E1900F0A37400F0A3741AF0A37401F0A3740092
:100E2900F0A37418F07A00791A12037CEF703990E4
:100E39000018E07004A3E06410702D90001AE0FE21
:100E4900900015E0FBA3E0FAA3E0F9EE1208589030
:100E5900001BE0FE900015E0FBA3E0FAA3E0F99087
:0A0E69000001EE12086A80027FFE0D
:010E7300225C
:0B09B100900014EBF0A3EAF0A3E9F0C3
:1009BC00E49000181215BCE4FD7F0D12134B7D80E2
:1009CC007F0E1215C190001B7493F0A37420F0904D
:1009DC0000317402F07B01A314F0A37400F0A37433
:1009EC001BF0A3EBF0A37400F0A37419F07A007958
:1009FC001B7F0C120380900017EFF07058FC741BD7
:100A0C002CF582E43400F583E0FE900014E0FBA3A7
:100A1C00E0FAA3E0F9AF048F82758300EE12086A46
:100A2C00900018E0FE741B2FF582E43400F583E08F
:100A3C00FDEE6D900018F00CECB404C2741B2CF598
:100A4C0082E43400F583E0FF900018E06F600690BC
:100A5C00001774FEF07D807F0E1214C4900017E016
:010A6C00FF8A
:010A6D002266
:0B0A6E00900072EBF0A3EAF0A3E9F0A7
:100A79009000777493F0A37470F0E490007DF0FC1B
:100A8900900072E0FBA3E0FAA3E0F9AF048F82754E
:100A9900830012082BFE74792FF582E43400F58364
:100AA900EEF090007DE0FE8F8275830012082BFD29
:100AB900EE6D90007DF00CECB404C59000CF74018C
:100AC900F0A37400F0A3747EF07B017A0079777D3E
:100AD90007120E7A1215BD9000317409F0A3740142
:100AE900F0A37400F0A37477F0A37401F0A3740069
:100AF900F0A37475F07B017A0079777F0C1203807B
:100B0900EF700F900075E07004A3E064187003FFA4
:040B190080027FFED9
:010B1D0022B5
:1010BE00900048EFF0A3EDF0784A7C007D017E00B1
:1010CE007F061207EC78507C007D01900043E0FB18
:1010DE00A3E0FAA3E0F97E007F061207EC90003140
:1010EE00740CF0A37401F0A37400F0A37448F0A381
:1010FE007401F0A37400F0A37446F07B017A0079BA
:10110E00487F0E120380AD07ED70097F081215E9B6
:08111E00EF20E3027DFEAF05A6
:0111260022A6
:0B0BB40090005AEBF0A3EAF0A3E9F078
:100BBF009000607430F0A3EFF09000CF7401F0A3B9
:100BCF007400F0A37462F07B017A0079607D0212E9
:100BDF000E7A9000317404F0A37401F0A37400F046
:100BEF00A37460F0A37401F0A37400F0A3745EF01B
:100BFF007B017A0079607F0C12038090005DEFF02B
:100C0F007028A3E07004A3E06490701E90005AE077
:100C1F00FBA3E0FAA3E0F8AC02AD037B017A007905
:100C2F00607E007F101207EC800690005D74FEF06E
:050C3F0090005DE0FFE4
:010C4400228D
:0B0B1E00900089EBF0A3EAF0A3E9F0DF
:100B290090008E74A0F0A3EFF09000CF7401F0A3B1
:100B39007400F0A37490F07D02120E747404120311
:100B49005CEF701690008CE07004A3E06404700AF6
:100B590090008EE0540F640A60027FFEEF704B78BC
:100B69008E7C007D01900089E0FBA3E0FAA3E0F907
:100B79007E007F101207EC9000CF7401F0A374007F
:100B8900F0A3749EF07D10120E74741212035CEFC0
:100B9900701690008CE07004A3E06404700A900061
:0A0BA9008EE0540F640A60027FFE24
:010BB300221F
:1011E3009000B97450F0E4A3F07B019000CF04F0B9
:1011F300A37400F0A374BBF07A0079B97D02120ED8
:101203007A9000317404F0A37401F0A37400F0A386
:1012130074B9F0A37401F0A37400F0A374B7F07B66
:10122300017A0079B97F0C1203809000B6EFF07F4A
:0112330000BA
:011234002297
:1012FD00D2A27F0A7E0012000EC2A212000ED2A24E
:10130D0012000E7D0F7F0112134B7F0A7E0012001B
:10131D000E7D3D7F1112132F7D407F1512134B7FD4
:02132D0000229C
:10135E00EF644170241215BD7D3D7F1112134B7D3C
:10136E00867F1712134B7D7F7F2612132F7FE87E09
:0F137E000312000E12161180037FFF227F002240
:101611007F141215E9EF540370077D037F14121430
:01162100C404
:0116220022A5
:070003007D037F140215C10B
:0E1652001212FD1200031216117F4102135EE8
:0A0F95004200D200004200D6000026
:1015D300758921758CB1758ADFD2A9D28C758DFA84
:0615E300758BFAD28E2286
:03000B000210538D
:10105300C0E0C0F0C083C082C0D075D000C000C063
:1010630001C002C003C004C005C006C007758CB12F
:10107300758ADF9000D7E004F070069000D6E00494
:10108300F09000D2E475F00112088CFEC3E5F094F1
:1010930004EE9400400A9000DAE0B401031216440F
:1010A300D007D006D005D004D003D002D001D000A1
:0B10B300D0D0D082D083D0F0D0E0324B
:1014F400D3EF9400EE940040147DDC7C00ED1D706D
:0D150400011CED4C70F7EF1F70E61E80E338
:0115110022B7
:100F9F0020322100000000000000000000000000CF
:100FAF000000000000000000000000000000000032
:100FBF000000000000000000000000000000000022
:100FCF0000000000004100D8004100DB004100DAC2
:050FDF00004100D900F3
:0E166000C2ACC2998F993099FDC299D2AC22CA
:10138D00900014EBF0A3EAF0A3E9F0AF051DEF60B8
:10139D0019900014E0FBA3E475F00112088CA9F07C
:0B13AD00FA120812FF12166080E12205
:03002300020D606B
:100D6000C0E0C083C082C0D075D000C000C005C044
:030D700006C007B3
:100D7300309865C2989000D2E4F0A3F0AF99900048
:100D8300DAE0FE7014EFB4FE107401F09000D8E4C2
:100D9300F09000DB74FFF0803FEE6401703A900046
:100DA300D8E0FE04F074212EF8A607E0FDB4020C8F
:100DB300E521252224039000DBF080109000DBE086
:100DC300FFEDC39F40069000D97401F09000D8E076
:080DD300C3942D4003742DF0C0
:100DDB00D007D006D005D000D0D0D082D083D0E0C1
:010DEB0032D5
:0616A000759850D2AC2247
:100EF80020204943BFA8C3C5BDFBCFB5CDB3202033
:100F080000312E4943BFA8CAE4C8EB202020202086
:100F18002000322EC3DCC2EBCAE4C8EB3A38CEBBA1
:100F2800202000332E4943BFA8B5C7BCC7202020C6
:100F380020202000342EC3DCC2EBC9E8D6C33A38DF
:100F4800CEBB202000B3C9B9A62020202020202015
:100F5800202020202000CAA7B0DC2020202020202C
:070F680020202020202000C2
:0413E1007F057E0006
:0A13E500EF1FAC0670011E4C6017EC
:1013EF00E4900000F0900000E0C394FA50E8000091
:0713FF000000E004F080EEA5
:0114060022C3
:0A16350012158A8F8012163FD2B4FE
:05163F00000000002284
:10158A00E4FEFDEE25E0FEEF30E004EE4401FEEF5E
:0A159A00C313FF0DEDB408EBAF061C
:0115A4002224
:1015FE00C2B5D2B6D2B412163FE580339200C2B451
:02160E00A20038
:0116100022B7
:0813B80090001BECF0A3EDF026
:1013C0007D207C4E1215FE500AED1DAA0470011CF2
:1013D0004A70F1C2B5C2B6C2B40000121635C2B42A
:0113E00022EA
:1014D5007D207C4E1215FE500AED1DAA0470011CDC
:0E14E5004A70F1D2B5C2B6C2B4121635C2B406
:0114F30022D6
:10140700D2B77F361213B81213E17F301213B81216
:1014170013E17F0C1213B81213E17F011213B87F87
:06142700057E000213E542
:10145100EF70047F808016EFB401047F90800EEF5F
:10146100B402047F888006EFB403027F98EF2DFF5A
:031471000213B8AB
:10118700E4FDFF121451E4FBEB900EF893FF6006A9
:101197001214D50B80F2E4FD7F01121451E4FBEB2E
:1011A700900F0993FF60061214D50B80F2E4FD7FC0
:1011B70002121451E4FBEB900F1A93FF600612140E
:1011C700D50B80F2E4FD7F03121451E4FBEB900F83
:0B11D7002B93FF60061214D50B80F272
:0111E20022EA
:020C4500A90301
:100C4700121451E4FBE9B407004003020CD3900CE3
:100C57005CF8282873020C71020C7F020C8D020CC1
:100C67009B020CA9020CB7020CC5EB900EF893FF80
:100C7700605A1214D50B80F2EB900F0993FF604C6A
:100C87001214D50B80F2EB900F1A93FF603E1214EB
:100C9700D50B80F2EB900F2B93FF60301214D50B1E
:100CA70080F2EB900F3C93FF60221214D50B80F279
:100CB700EB900F4D93FF60141214D50B80F2EB905D
:0C0CC7000F5E93FF60061214D50B80F244
:010CD30022FE
:0B128000900016EBF0A3EAF0A3E9F0E9
:10128B00121451E490001AF0900019E0FFA3E0FE55
:10129B00C39F501F900016E0FBA3E0FAA3E0F98E6A
:1012AB008275830012082BFF1214D590001AE004EC
:0312BB00F080D5EB
:0112BE00220D
:10162300E4FD121451E4FB7F201214D50BEBB4102C
:01163300F6C0
:011634002293
:10151200E4FFFE7D507C00ED1D70011CED4C70F768
:0D152200B2A30FBF00010EBE02E9BF58E6E4
:01152F002299
:0C168800C2B27FF47E011214F4D2B22230
:10153000C2B27FFA7E001214F4D2B27FFA7E001299
:0E15400014F4C2B27FFA7E001214F4D2B2226A
:0316A900D2B32297
:0316AC00C2B322A4
:10056D009000DD7410F07590FE9000DCE590F0E0E9
:10057D0054F0F064F060587F057E001214F4900082
:10058D00DCE590F0E054F0F064F06043E590F0E0CD
:10059D002482602424C0601824E0600C24F0701EB6
:1005AD009000DD7401F080169000DD7402F0800E75
:1005BD009000DD7403F080069000DD740CF0900067
:1005CD00DCE064F06009E590F0E054F0F080EF7548
:1005DD0090FD9000DCE590F0E054F0F064F0605890
:1005ED007F057E001214F49000DCE590F0E054F0ED
:1005FD00F064F06043E590F0E02483602424C06053
:10060D001824E0600C24F0701E9000DD7404F0805E
:10061D00169000DD7405F0800E9000DD7406F080FC
:10062D00069000DD740DF09000DCE064F06009E5EB
:10063D0090F0E054F0F080EF7590FB9000DCE590C9
:10064D00F0E054F0F064F060587F057E001214F471
:10065D009000DCE590F0E054F0F064F06043E5903C
:10066D00F0E02485602424C0601824E0600C24F0A0
:10067D00701E9000DD7407F080169000DD7408F098
:10068D00800E9000DD7409F080069000DD740EF090
:10069D009000DCE064F06009E590F0E054F0F0804B
:1006AD00EF7590F79000DCE590F0E054F0F064F019
:1006BD0060577F057E001214F49000DCE590F0E0A9
:1006CD0054F0F064F06042E590F0E024896023245A
:1006DD00C0601724E0600B24F0701DE49000DDF085
:1006ED0080169000DD740AF0800E9000DD740BF022
:1006FD0080069000DD740FF09000DCE064F060097E
:0F070D00E590F0E054F0F080EF9000DDE0FF2287
:100FE50090000DEBF0A3EAF0A3E9F090000CEFF010
:100FF50025E0FEE42400FFEE3420FE12154EE490B9
:101005000011F0900010E0FFA3E0FDC39F50389061
:10101500000CE025E0FEE42400FFEE3420FE7C0019
:10102500EF2DFFEC3EFEA3E0FBA3E0FAA3E0F99071
:101035000011E0F58275830012082BFD12147490DF
:0E1045000011E004F080BC7FF47E0102156C07
:0E112700900000EFF0A3EBF0A3EAF0A3E9F0D4
:10113500E4900005F0900004E0FFA3E0FDC39F509C
:101145003A900000E025E0FEE42400FFEE3420FEA6
:101155007C00EF2DFFEC3EFE12142D900001E0FB0C
:10116500A3E0FAA3E0F9900005E0F582758300EFAE
:1011750012086A900005E004F080BA7FF47E01024F
:02118500156CE7
:10142D00AD07AC06E4F5E275E78275E501ECF5E391
:10143D00EDF5E4C2AF75E64675E6B900D2AF12160A
:04144D0094AFE22254
:10147400AB07AA0675E78275E502EAF5E3EBF5E446
:10148400AF058FE2C2AF75E64675E6B900D2AF028A
:021494001694AC
:10154E00AD07AC0675E78275E503ECF5E3EDF5E462
:0E155E00C2AF75E64675E6B900D2AF0216942C
:0C169400E4F5E7F5E5F5E6F5E3F5E42202
:10156C00D3EF9400EE940040147D7D7C00ED1D7053
:0D157C00011CED4C70F7EF1F70E61E80E3C0
:01158900223F
:100CE000021235E493A3F8E493A34003F68001F2E3
:100CF00008DFF48029E493A3F85407240CC8C33315
:100D0000C4540F4420C8834004F456800146F6DFE3
:100D1000E4800B0102040810204080900F6FE47EF5
:100D2000019360BCA3FF543F30E509541FFEE493D8
:100D3000A360010ECF54C025E060A840B8E493A39F
:100D4000FAE493A3F8E493A3C8C582C8CAC583CACA
:100D5000F0A3C8C582C8CAC583CADFE9DEE780BE82
:010FE400000C
:10071C00E709F608DFFA8046E709F208DFFA803EBF
:10072C0088828C83E709F0A3DFFA8032E309F608AC
:10073C00DFFA8078E309F208DFFA807088828C8314
:10074C00E309F0A3DFFA806489828A83E0A3F608C8
:10075C00DFFA805889828A83E0A3F208DFFA804CA2
:10076C0080D280FA80C680D4806980F28033801079
:10077C0080A680EA809A80A880DA80E280CA8033E2
:10078C0089828A83ECFAE493A3C8C582C8CCC5835A
:10079C00CCF0A3C8C582C8CCC583CCDFE9DEE7802A
:1007AC000D89828A83E493A3F608DFF9ECFAA9F0A9
:1007BC00EDFB2289828A83ECFAE0A3C8C582C8CCFF
:1007CC00C583CCF0A3C8C582C8CCC583CCDFEADE18
:1007DC00E880DB89828A83E493A3F208DFF980CC7A
:1007EC0088F0EF60010E4E60C388F0ED2402B40473
:1007FC000050B9F582EB2402B4040050AF2323451A
:06080C00822390076C73CB
:10081200BB010689828A83E0225002E722BBFE02E4
:09082200E32289828A83E4932217
:10082B00BB010CE58229F582E5833AF583E0225082
:10083B0006E92582F8E622BBFE06E92582F8E222CC
:0D084B00E58229F582E5833AF583E49322E6
:10085800BB010689828A83F0225002F722BBFE017F
:02086800F32279
:10086A00F8BB010DE58229F582E5833AF583E8F0C4
:10087A00225006E92582C8F622BBFE05E92582C870
:02088A00F22258
:10088C00A3F8E0C5F025F0F0E5821582700215831F
:06089C00E0C838F0E8227C
:1008A200BB010A89828A83F0E5F0A3F0225006F7A1
:0F08B20009A7F01922BBFE06F3E5F009F319229E
:00000001FF
